:020000040000fa
:100000000200de021003000000000002100b0000de
:10001000000000021013000000000002101b00008e
:10002000000000021023000000000002102b00005e
:10003000000000021033000000000002103b00002e
:10004000000000021043000000000002104b0000fe
:10005000000000021053000000000002105b0000ce
:10006000000000021063000000000002106b00009e
:10007000000000021073000000000002107b00006e
:10008000000000021083000000000002108b00003e
:10009000000000020e261200f0b900030200d8e4ae
:1000a00090000278a579018002f0a3d8fcd9fa90db
:1000b00000a6aa82ab839000f6780979018015e446
:1000c00093a3ac82ad838a828b83f0a3aa82ab8395
:1000d0008c828d83d8e9d9e71203b9120e4575d009
:1000e0000075813f75188075931e5392fe0200962d
:1000f00079015392fe220010000000000200bb01b3
:1001000002e722c0925392fec082c08389828a8312
:10011000bb0003e08002e493d083d082d09222bb64
:100120000015c0925392fec082c0838a838982f0f8
:10013000d083d082d09222bb0101f722cac0e0e670
:10014000f30908dafad0e0fa22cac0e0e0f208a324
:10015000dafad0e0fa22600c08c6c313c618c61338
:10016000c6d5e0f422700422600d18c6c333c60859
:10017000c633c6d5e0f41822e4735392fed083d080
:10018000822518f8c518c39824fbcef208e520f2a2
:1001900008e9c0e07908e709f208defad0e0f9eff3
:1001a000f208d0e0fed0e0f208eef208e473a818fe
:1001b000e2fe08e208f520e9c0e07908e208f70964
:1001c000dffae208ffd0e0f9e208c0e0e208c0e0b0
:1001d00088185392fe22e584f208e585f222e208af
:1001e000f584e2f585227403800474028000c9c09e
:1001f000e0e518c399f518c912013cd0e0f9227462
:10020000038000c8c0e0e518c398f518c81201497a
:10021000d0e0f822d083d082c5f0e493a3c5f0c328
:1002200095f0f5f0e493a3c395f04005e5f0048064
:1002300001e475f002a42582f582e5f03583f583ab
:10024000e493a3c0e0e493c0e022d083d082ccc08a
:10025000e0e493a360061202741470fae493a360be
:10026000061202931470fad0e0fce493a3c0e0e419
:1002700093c0e022c0e0e493a3d39c5010e493a386
:10028000c39c400ad0e0d0e0d0e0020267a3a3a361
:10029000d0e022c0e0e493a36c7009d0e0d0e0d0bd
:1002a000e0020267a3a3d0e0227400f5d375d20a5e
:1002b0005392fe22a2afe492e0fac2af5392fe90b4
:1002c0006270e0a2e740f5e9c333906272f0906299
:1002d00070e0d2e0f0e0a2e740fbeaa2e092af22b9
:1002e00074fa12017aa2af92e0f508c2afed900065
:1002f00002f0ec900003f07462900004f0747390cc
:100300000005f0e4900006f0e9900007f074129008
:100310000008f07442900009f0eb906272f0ea90ed
:100320006271f07400f5d575d40275d601906270d3
:10033000e0d2e1f0e0a2e740fbe508a2e092af7f67
:10034000010201aec008c0095392fe906276e054eb
:1003500070643070047a0380027a07e5c7fb8ac7ad
:1003600090ff00e090001af08bc7a2e05004788064
:1003700080027800e8f5c6e59ef508e8650870019a
:10038000e470f47408906270f0d009d0082274fa16
:1003900012017af9800c8a828b83e029f9a3aa8260
:1003a000ab83ecfeedff74ff2e1c74ff3ffdee707f
:1003b00001ef70e27f010201ae5392fe900001e076
:1003c00090001bf0120344e5c7ff75c7007c007d59
:1003d000707a007b9012038ee924a5fe8fc77f01ff
:1003e000e5c7f5088fc77c007d807a007b8012030b
:1003f0008ee92efe8508c70fefc3940340e2ee702e
:10040000277418559d6410700890001be0a2e0400e
:10041000177403900001f005929000a6e0f582a306
:10042000e0f5830592120178e4900001f01202a930
:100430001206e612071775c90890001be0a2e140fa
:100440000675c9a875c95812077680ed74f81201af
:100450007a15181518a8181201d690620ee0fee45d
:10046000f0906211e0f50aa2e4501e7480f0740767
:10047000900023f090003fe07002a3e060061206b7
:1004800061120178e4900023f0e50aa2e2500be447
:10049000906211f0900023f0807a900023e0fa74cb
:1004a000026a705c906216e0ff90003a1201ffef62
:1004b000f91206488f0890003d120656120670e0a9
:1004c0007002a3e06004744080027448906211f0ee
:1004d00090003de07002a3e0701590003fe07002d4
:1004e000a3e06006120661120178e4900023f0eeaa
:1004f00090620ef0a8181201de0518051802074bcd
:1005000074066a7006120661120178900023e0609a
:10051000030205e1e50aa2e050d57508327509002d
:10052000750a0078081201e6790812064890003f23
:10053000e4f0a3f0900032e054e012024a0004001c
:100540004d0520bd05808a05a0cc05b5059000337a
:10055000e012024a0005017b0503760505670509df
:1005600080050b8505b505120ade900023e06404c2
:10057000706974608067120ad880ef120ad280ea2c
:10058000120c2880e5120d5a80e0900033e0120230
:100590004a000400a10506a60508ab050ab005b58a
:1005a0000512090680c4120b2c80bf120bf080ba12
:1005b000120cfa80b57404900023f080b590003fcf
:1005c000749ef0a37407f012079e809e90003f7403
:1005d0005bf0a37408f012085b808f744090621186
:1005e000f0900023e0fa74016a704c750a029000e2
:1005f0003de0f8a3e0f9c3e89420e994005007e84f
:10060000ff750a0a80027f2090003a1201ffeff97d
:100610007a207b621207380518051805188f081212
:100620000670120656e50a906211f0efc39420405e
:10063000030204ef0204da74056a60030204ef1295
:1006400006611201780204ef7a207b62120723050b
:10065000180518051822c3e09508f0a3e09400f0ef
:1006600022059290003fe0f582a3e0f583059222f7
:1006700090003ae0f9a3e0faa3e0fbe92508f9eae3
:100680003400fa90003ae9f0a3eaf0a3ebf090000e
:100690003d22c008c0097a008a08e5082424f582b2
:1006a000e43400f583e95392fef00aeac39405406e
:1006b000e77a008a08e5082429f582e43400f58306
:1006c000e9f00aeac3940540ead009d0082274028e
:1006d0005392fe90001cf0e490001df0900023f077
:1006e000790312069222c008c00975082175090015
:1006f00078081201ea7c007d007a417b00120e49e5
:1007000005180518740290001cf0740390620ff035
:10071000e0a2e750fb80b253f4fed29043fe0153b7
:1007200092fe2274f812017a12075b6009e012014e
:100730001f12075070f7801374f812017a12075bca
:1007400060091200fef012075070f77f030201ae3d
:10075000e9240109ea3400fa1cec228a828b83e93d
:10076000fce5182408f8e2f50808e2f50908e2a912
:1007700008aa09fbec22eec0e05392fe906206e06c
:10078000fa906202e0fe906204e0eaa2e2500312f4
:1007900006ceeea2e0500312044cd0e0fe2274f725
:1007a00012017a900033e0120214000156084e083c
:1007b000b207740190001bf0900023e0fa704090a3
:1007c0000038e0f8a3e0f9e87001e97010740290d5
:1007d00000acf0e4900023f07f040201ae90003af8
:1007e0007462f0a37400f0a3e4f090003de8f0a37d
:1007f000e9f07402900023f074039000ac80d87488
:10080000026a7052900034e02440f508a3e03400fe
:10081000f509e508541f701285080a85090b74054f
:10082000780a120156a90a1202b4900038e0240393
:1008300054fcf97c627d0074047808120165aa08f2
:10084000ab091202e0e4900023f0740580ac74025e
:1008500090001b0207d274040207d45392fe90004a
:1008600033e06403701a90003a74a8f0a37400f0a7
:10087000a3e4f090003d7406f0a3e4f0740180025c
:1008800074048000900023f0225392fe9000a2e4b2
:10089000f0a3740ff02274fa12017a15181518a833
:1008a000181201d6eafdebfc7a007b000c8032ecda
:1008b0006047a3e493feed6e603be96e700b05921a
:1008c0009000a2e0faa3e0fb1ceffe5392fe900022
:1008d000a2e02efea3e03400ff9000a2eef0a3ef12
:1008e000f09000a2e0f584a3e0f585e4059293ff83
:1008f00070bdec60047a007b00181201de0518055b
:10090000187f010201aec0085392fe900034e070df
:1009100002a3e0701e900036e0f8a3e0f974ff59de
:10092000fbe47001eb700c900038e064027002a3ed
:10093000e0600474048058900032e01202148002d7
:10094000330948099609a609e870e890002fe0608d
:10095000047801800278009000a4e8f0a3e4f0900d
:10096000002ee0600a9000a4e04402f0a3e4f090be
:100970000023e06404601c90003a74a4f0a37400a7
:10098000f0a3e4f090003d7402f0a3e4f074019051
:100990000023f0d0082290001ce0640470959000c1
:1009a000a4e4f0a380c8e8547ff50890001ce0643c
:1009b000047080e508c394064003020933e5082467
:1009c0001cf582e43400f583e854806018a3a3a3e7
:1009d000a3a3a3a3e06403700478018002780090cd
:1009e00000a4e88086e582240cf582e5833400f5d6
:1009f00083e0640370e780e174f912017a15181539
:100a000018a8181201d6e9fa900038e07002a3e0a5
:100a1000701290001ce064046016900036e07002d2
:100a2000a3e0600c7404900023f0790118020dfb20
:100a3000900032e0541f1202140002240a430a4bb1
:100a40000a550a900034e064016004790080ddea10
:100a500090002e80d4900036e0547ff5089000344a
:100a6000e070e8e508c3940650bae50890620ef01d
:100a7000241cf584e43400f585900036e054806051
:100a800021ea6004741080027440906211f0ea6000
:100a90000474038001e40592a3a3a3a3a3a3a3f07a
:100aa0008026ea6004742080027480906214f0ea68
:100ab000600474038001e4c0e0e584240cf582e561
:100ac000853400f583d0e0f0e45392fe90620e028c
:100ad0000a2979001209f82279011209f8225392a1
:100ae000fe900036e07002a3e07020900038e070c5
:100af00002a3e07016900034e0f8a3e0f974805887
:100b0000fa74ff59fbea7001eb60057404020c23d0
:100b1000e8906200f090001c6009e06402700c74c0
:100b200003f022e0640370037402f02274f81201ef
:100b30007a120889900034e0faa3e0f91202140155
:100b4000027f0b490b510b770b7b007a00790180f8
:100b500032eafb7a007902120bd8e924020909ea89
:100b60003400fa89828a83e493f8740193f990003f
:100b70003de8f0a3e9801aeafb7a00790380047b60
:100b8000007a00120bd87b801200fe90003df0a38b
:100b9000e4f090003ae0fca3e0fda3e0feec4d4e53
:100ba000700474048029900023e0640460259000a0
:100bb00038e0faa3e0fb90003de0f8a3e0f9c3ead7
:100bc00098eb99500890003deaf0a3ebf074019087
:100bd0000023f07f030201ae12089690003aeaf07b
:100be000a3ebf0a37480f090003ae0f9a3e0fa22be
:100bf0005392fe900034e07002a3e070169000362d
:100c0000e07002a3e0700c900038e064017002a371
:100c1000e060047404800c90003a741df0a374002a
:100c2000120d4a900023f02274f812017a90001cf1
:100c3000e06402601f900036e07002a3e07015903f
:100c40000038e07002a3e0700b900035e0f9e4702a
:100c500001e960097404900023f0020ceb1208898a
:100c6000900034e060777b007a0079021208968a5f
:100c7000088b09ae08af09ee7001ef60d790003421
:100c8000e0f88e828f83a3a3a3a3a3e493c0e0e83c
:100c9000fad0e06a70d0740490001cf0e890001d57
:100ca000f0750a008e828f83a3a3a3a3e493fae5d1
:100cb0000ac39a5036850a08e508241ef582e434f2
:100cc00000f583e4f07b007a00120cee7002e583fd
:100cd0006007a3a3a3e49370ec050a80c790001dee
:100ce000f0740390001cf0f9120692020bd3790401
:100cf0001208968a828b83e5822274f812017a9018
:100d0000001ce06404701e900032e0648170169054
:100d10000034e07002a3e0700c900038e0640170d1
:100d200002a3e060047404801a900036e0241ef5eb
:100d300008a3e03400f50990003ae508f0a3e509be
:100d4000120d4a900023f0020bd3f0a3e4f09000c0
:100d50003d7401f0a3e4f074012274f912017a15d4
:100d6000181518a8181201d690001ce0640470121f
:100d7000900032e06401700a900038e07002a3e055
:100d800060077404900023806f1208897b007a004a
:100d90007902120cf07002e583600fa3a3a3a3a352
:100da000e493fa90001de06a70e27b007a02120c74
:100db000ee7002e58360cb0592900034e0f8a3e08a
:100dc000f9900036e0faa3e0fb858284858385a351
:100dd000a3e493fcea6c7001eb600f0592a3a3a35c
:100de000e493fce86c7001e970c0ea241ef582eb24
:100df0003400f583e85392fef0a8181201de0518be
:100e000005187f020201ae15188a828b83e9c0e0c3
:100e1000a818d0e0f25392fee0c0e0a818d0e0f2ab
:100e200005185392fe2274fa12017a15181518ea61
:100e3000feebffa818eef208eff2aa18ab937901c7
:100e4000120e0780ee1200932274fa12017ae5184e
:100e50002406f8e2fe08e2ff8a828b83800becf026
:100e6000a3ee24ff1eef34ffffee7001ef70ef7f63
:100e7000010201aeffffffffffffffffffffffffcc
:100e8000ffffffffffffffffffffffffffffffff72
:100e9000ffffffffffffffffffffffffffffffff62
:100ea000ffffffffffffffffffffffffffffffff52
:100eb000ffffffffffffffffffffffffffffffff42
:100ec000ffffffffffffffffffffffffffffffff32
:100ed000ffffffffffffffffffffffffffffffff22
:100ee000ffffffffffffffffffffffffffffffff12
:100ef000ffffffffffffffffffffffffffffffff02
:100f000012010002000000205824feff0000010230
:100f1000030109021b0001010480250904000000ef
:100f2000fe01020409210d03e84000010104030948
:100f300004120342006c00750065006700690067d9
:100f400000610016034c006f007700200045006e22
:100f50000065007200670079000a03310032003337
:100f6000003400080344004600550000ffffffff67
:100f7000ffffffffffffffffffffffffffffffff81
:100f8000ffffffffffffffffffffffffffffffff71
:100f9000ffffffffffffffffffffffffffffffff61
:100fa000ffffffffffffffffffffffffffffffff51
:100fb000ffffffffffffffffffffffffffffffff41
:100fc000ffffffffffffffffffffffffffffffff31
:100fd000ffffffffffffffffffffffffffffffff21
:100fe000ffffffffffffffffffffffffffffffff11
:100ff000ffffffffffffffffffffffffffffffff01
:101000000210f7022ffeffffffffff023911ffff63
:10101000ffffff023965ffffffffff023a21ffffdd
:10102000ffffff022750ffffffffff023786ffff92
:10103000ffffff023affffffffffff0239c1ffff83
:10104000ffffffffffffffffffffffffffffffffb0
:10105000ffffff022fe7ffffffffffffffffffff85
:10106000ffffffffffffffffffffff0238a7ffffac
:10107000ffffff023a95ffffffffff0238d5ffff9a
:10108000ffffff0230027582fc75837f740012112e
:1010900012121133b900030210e1e479347802b876
:1010a00000028004f709d8fce49003027860790715
:1010b0008002f0a3d8fcd9fa900961aa82ab839090
:1010c000113978b979028015e493a3ac82ad838a93
:1010d000828b83f0a3aa82ab838c828d83d8e9d9db
:1010e000e77582c87583d274021211127582197560
:1010f00083db740212111275d00075813f75318047
:10110000753202753303759f0075931e5392fe026c
:101110001091c09ff59fe473d09f225392fed0831d
:10112000d082c09fe493c0e0740193c0e074029346
:10113000f59f2279015392fe220300000200003b3a
:10114000140102030000af153efe0e00f401fa0088
:10115000960064004b0032001e001400d6be898e3b
:10116000000106021213151429417671ffc1fbe834
:101170004c90728be7b3518963ab232302841872be
:10118000aa612f3b51a8e53749fbc9ca0c18532c5b
:10119000fd45e3faffffff0000800062000000074a
:1011a000000000050006000700000001000100002b
:1011b000010001020203000200000000000202011f
:1011c000000240420f0019000000093d0000eaff44
:1011d000ffff00000080fb349b5f80000080001058
:1011e0000000000000006d49774981498b4995490d
:1011f0009f49a949b349bd49c749d149db49e54997
:10120000ef49f949034a0d4a174a214a2b4a354a00
:101210003f4a494a534a5d4a674a714a7b4a854a6e
:101220008f4a994aa34aad4ab74ac14acb4ad54ade
:10123000df4ae94af34afd4a074b114b1b4b254b4a
:101240002f4b394b434b4d4b574b614b6b4b754bb6
:101250007f4b894b934b9d4ba74bb14bbb4bc54b26
:10126000cf4bd94be34bed4bf74b014c0b4c154c93
:101270001f4c294c334c3d4c474c514c5b4c654cfe
:101280006f4c794c834c8d4c974ca14cab4cb54c6e
:10129000bf4cc94c000000007c1731570e2270c0b3
:1012a000e1063420fe500feaaf1bb51bbb1bc11b70
:1012b000c71bcd1b4f1b771d591d1f1ebf1dc51df5
:1012c000f316e11385183b14cb1d7d1d8d1c0d1edf
:1012d00000400000ffffff00ffffffffffffffffd9
:1012e00001010000000400000003000000c0000035
:1012f0000012111be8940212111b00950212111b1f
:101300003b950212111ba6950212111bb3950212f6
:10131000111bd7950212111b01960212111b1f9669
:101320000212111b96960212111bbb960212111b80
:1013300018970212111bc09b0212111b969c0212dd
:10134000111bedbd0212111b50be0212111b87bef4
:101350000212111b9cbe0212111bc6be0212111bef
:10136000e0be0212111b2ebf0212111b4cbf021253
:10137000111b9ebf0212111b01c00212111b48c09b
:101380000212111be2c00212111b41c10212111bf9
:101390005bc10212111b76c10212111ba7c10212fe
:1013a000111bdec10212111b86c20212111b8bfa25
:1013b0000112111bbcfa0112111be9fa0112111bd7
:1013c000f2fa0112111b4efb0112111b13fc011248
:1013d000111b97fc0112111beefc0112111b11fdd8
:1013e0000112111b88fd0112111b7bfe0112111b42
:1013f00086fe0112111babfe0112111b0eff011222
:10140000111b69ff0112111b9bff0112111b81dad5
:101410000212111bb8da0212111be0d90212111bc1
:10142000f4da0212111b01db0212111b6a8b021289
:10143000111bb88b0212111bcf8b0212111bef8be9
:101440000212111b408c0212111b9d8c0212111be7
:10145000028e0212111b088f0212111b8d8f0212b5
:10146000111b9f8f0212111be58f0212111b73902b
:101470000212111bb5900212111b0c910212111bca
:101480001f910212111b08920212111b2b930212c0
:10149000111b9f930212111b00800112111b9d81d1
:1014a0000112111b1a820112111b81830112111bdf
:1014b000e4830112111b5e840112111bca84011204
:1014c000111b62850112111b32860112111b0c8740
:1014d0000112111b08880112111b62880112111bd5
:1014e000bf880112111b31890112111bc68901121b
:1014f000111b298a0112111ba48a0112111bf48ae3
:101500000112111b598b0112111ba48b0112111b0b
:10151000188c0112111bb28c0112111b688d011263
:10152000111bef8e0112111b52910112111b8b9195
:101530000112111b14920112111b58920112111b5e
:101540008e920112111b3b940112111bda940112ad
:10155000111b5d950112111bb4960112111b2097ee
:101560000112111b0d980112111bf6980112111b8b
:10157000179a0112111bad9a0112111b909c0112b6
:10158000111b439f0112111bd59f0112111b5ea05d
:101590000112111bbfa00112111bf7a40112111b94
:1015a00063a70112111b47a80112111bb7aa011250
:1015b000111bd7ab0112111b2fad0112111b48ad2e
:1015c0000112111be8c50212111b29c60212111bc0
:1015d00091c60212111bbdc60212111b94c7021242
:1015e000111b6ec80212111b55d50212111b9cd57e
:1015f0000212111b19d60212111b94510012111b59
:10160000b2510012111bca510012111be2510012fb
:10161000111b41520012111bf7520012111b4253b1
:101620000012111ba5530012111bdf530012111bd6
:101630001d540012111b4f540012111b8c54001228
:10164000111bf7540012111b96550012111ba455c3
:101650000012111bb5580012111b19590012111b51
:101660004b590012111ba25a0012111bce5b001223
:10167000111b0f5c0012111b405c0012111b6a5cf5
:101680000012111be75e0012111b0d5f0012111bef
:10169000555f0012111b0f640012111b6d640012c4
:1016a000111bb1640012111b4a650012111b416627
:1016b0000012111bdc680012111b186a0012111baa
:1016c000916a0012111b366c0012111b9d6c0012e6
:1016d000111bda6c0012111b3f6d0012111b8c6d77
:1016e0000012111b216e0012111b716e0012111bd2
:1016f000bf6e0012111bc96e0012111bb26f0012d7
:10170000111b18700012111bed700012111b8b7150
:101710000012111b06730012111b28730012111bfb
:101720004d750012111b35760012111ba97600129f
:10173000111bd1760012111b97780012111ba8788b
:101740000012111bb2780012111b3f7a0012111bfc
:10175000a97a0012111bea7a0012111b517b0012a8
:10176000111b127c0012111b8f7c0012111bd07cec
:101770000012111bfa7c0012111b317d0012111b8b
:10178000667d0012111b8a7d0012111bef7d001275
:10179000111bfd7d0012111b407e0012111bb97e32
:1017a0000012111bbfd30212111b4ad40212111bcb
:1017b00068d40212111bb6d40212111bf8d4021203
:1017c000111bfad80212111bebca0212111b1ccbff
:1017d0000212111bcccb0212111b6acc0212111b7c
:1017e000c0b30112111bddb30112111b0eb40112a3
:1017f000111bb3b40112111be0b40112111b14b57b
:101800000112111b63b50112111b92b50112111bbc
:10181000efb50112111b4fb60112111b20b70112b7
:10182000111b96b70112111b74b90112111bf9b9e2
:101830000112111b92bc0112111b48c00112111b95
:101840008bc00112111bd2c00112111b62c1011207
:10185000111b40c30112111be7c30112111b36c437
:101860000112111b7bc40112111be3c40112111bd5
:1018700013c50112111b65c50112111babc6011264
:10188000111be6c70112111bf7c70112111b23c957
:101890000112111b39c90112111b64c90112111b5c
:1018a00003ca0112111b18ca0112111b4cca0112e2
:1018b000111ba9cb0112111b60cc0112111b94cc7e
:1018c0000112111bdbcc0112111b80cd0112111b67
:1018d000e9cd0112111b1acf0112111b8ccf01127d
:1018e000111bcecf0112111b9bd00112111ba5d2cf
:1018f0000112111bd6d20112111b18cd0212111b9d
:1019000025cd0212111b48cd0212111b8ece0212e0
:10191000111b9bce0212111bcace0212111bebb37c
:101920000212111b60b40212111b90b40212111b9f
:10193000d8b40212111ba4b50212111b4fb7021228
:10194000111babb70212111bb9b70212111bbdb8a4
:101950000212111bddb80212111b3dd70212111b1e
:1019600068d70212111b9dd70212111b75d60212e5
:10197000111b09d70212111b31da0212111b57da9f
:101980000212111bb4c80212111bc7c80212111b8c
:1019900035d30112111b4ad30112111b1bd40112a2
:1019a000111b33d40112111b42d40112111b58d444
:1019b0000112111b64d40112111ba4d40112111bba
:1019c000cfd40112111b25d50112111b52d50112c2
:1019d000111bfbd50112111b23d60112111b2cd692
:1019e0000112111b4fd60112111bdfd60112111b60
:1019f00053d70112111bc1d70112111bedd70112d0
:101a0000111b4fd80112111b7dd80112111bccd80c
:101a10000112111b0bd90112111b42d90112111b0a
:101a200081d90112111bbdd90112111be9d9011273
:101a3000111bf3d90112111b49da0112111b9cda97
:101a40000112111bd4da0112111b0cdb0112111b44
:101a500044db0112111b6cdb0112111b75db01123f
:101a6000111b93db0112111babdb0112111bd4db29
:101a70000112111b15dc0112111b41dc0112111b9b
:101a800087dc0112111bd5dc0112111b65dd01126f
:101a9000111b10de0112111b5dde0112111bbdded8
:101aa0000112111bd2de0112111bedde0112111bfe
:101ab000fbde0112111b98df0112111b28e001123d
:101ac000111b76e00112111bb3e00112111bd1e0d2
:101ad0000112111bf3e00112111b17e10112111b7e
:101ae00033e10112111ba9e10112111beae10112fc
:101af000111b65e20112111b7ee20112111b02e3b0
:101b00000112111b31e30112111b40e30112111be1
:101b100088e30112111b97e30112111bafe30112bd
:101b2000111bd8e30112111b0ee40112111b1de45d
:101b30000112111b55e40112111bbee40112111b0d
:101b4000ece40112111b1ae50112111b26e501122a
:101b5000111b2ce50112111bf5e60112111b7be78d
:101b60000112111be7e70112111b1ee80112111be4
:101b70006ee80112111bc5e80112111b1ce90112cc
:101b8000111b9be90112111b25ea0112111b90ea9e
:101b90000112111b0feb0112111b70eb0112111b33
:101ba00059ec0112111b26ed0112111b8cc20212fd
:101bb000111be2c20212111bf8c20212111b0ec34a
:101bc0000212111b24c30212111b45c30212111b66
:101bd0005bc30212111b71c30212111b85c40212d6
:101be000111bc0c40212111bd7c40212111b50c515
:101bf0000212111b8cae0212111ba9ae0212111b94
:101c0000eaae0212111b34af0212111b4faf0212c7
:101c1000111bd3af0212111b32b00212111b86b07e
:101c20000212111b9bb00212111bddb00212111b1c
:101c30002fb10212111b3db10212111b56b102123b
:101c4000111b7cb10212111b99b10212111bc5b1fb
:101c50000212111b03b20212111b2ab20212111b33
:101c60005db20212111b6cb20212111b75b202128c
:101c7000111befb20212111bc7b30212111b68d85d
:101c80000212111b95d80212111b3cb90212111b32
:101c900005ba0212111be4ba0212111b78bb021220
:101ca000111bcfbb0212111b2abc0212111b4bbc11
:101cb0000212111b6cbc0212111b84bc0212111bfc
:101cc000a3bc0212111bedbc0212111b30bd02128b
:101cd000111b7cbd0212111bdabd0212111b28d28e
:101ce0000212111b55d20212111b00800212111b8d
:101cf00031800212111b7d800212111bca80021258
:101d0000111b45810212111b5b830212111b6e8491
:101d10000212111bb5860212111bc8870212111b79
:101d2000ad880212111bb6890212111b348a0212ed
:101d3000111b458b0212111bafed0112111be4edbb
:101d40000112111b1dee0112111b99ee0112111b44
:101d5000f2ee0112111b6df80112111bfef90112b6
:101d6000111b85d00212111bf3d00212111b17d1c7
:101d70000212111b72d10212111bc4d10212111bcb
:101d800008d20212111b1ad20212111bb29c0212ab
:101d9000111bcf9c0212111b7f9d0212111bdd9d96
:101da0000212111b5b9f0212111bf49f0212111be6
:101db0003ba00212111b97a00212111bfea00212df
:101dc000111b4aa10212111bc0a10212111b22a257
:101dd0000212111bafa80212111b05ab0212111b3c
:101de0003fab0212111b5dab0212111b9bab021227
:101df000111bb5ab0212111bf4ab0212111b1cac70
:101e00000212111b4fac0212111b96ac0212111bd5
:101e1000b6ac0212111b15ad0212111b46ad021217
:101e2000111b57ad0212111bd1ce0212111b33cf61
:101e30000212111b95cf0212111b97cf0212111b18
:101e4000adcf0212111b08d00212111bd5d70212fe
:101e5000111bf3d70212111bbda20212111baaa360
:101e60000212111b90a40212111b98a40212111b42
:101e7000a0a40212111b03a50212111baca5021291
:101e8000111bada60212111beba60212111bb7a764
:101e90000212111b15a80212111b86100012111b31
:101ea0006fd90212111bb27f0012111bc4da02e7b4
:101eb0006670100809e766700a0809e7667004088a
:101ec00009e76622e066701008a3e066700a08a3be
:101ed000e066700408a3e06622c3e7960809e79667
:101ee0000809e7960809e796a2d265d03322c3e72e
:101ef000960809e7960809e7960809e79622bb01c4
:101f000002e722c0925392fec082c08389828a83f4
:101f1000bb0003e08002e493d083d082d09222bb46
:101f20000015c0925392fec082c0838a838982f0da
:101f3000d083d082d09222bb0101f722080808eaa0
:101f4000c0e0ebc0e086f0e7a4fa180986f0e7a449
:101f50002afa180986f0e7a42afa180986f0e7a4f5
:101f60002afa1986f0e7a4fbe5f02afa190886f0a8
:101f7000e7a42bfbe5f03afa190886f0e7a42bfb5f
:101f8000e5f03afa18180986f0e7a4c5f02bfbe44f
:101f90003afa1908e7c5f0c6a426f6e5f03bfbe4db
:101fa0003afa1886f0e7a4f6e5f00826f6e43b08ce
:101fb000f6e43a08f6d0e0fbd0e0fa22e4cfc0e045
:101fc000e4cec0e0e4cdc0e0e4ccc0e075f020c3d6
:101fd000e633f608e633f608e633f608e633f61895
:101fe0001818ec33fced33fdee33feef33ffc3ec9a
:101ff0009709ed9709ee9709ef97191919400fff07
:10200000ec97fc09ed97fd09ee97fe191906d5f03e
:10201000beecf709edf709eef709eff7191919d03a
:10202000e0fcd0e0fdd0e0fed0e0ff2212209418ca
:102030001818121fbc122083191919221220831993
:102040001919080808e618181820e7e0121fbc1232
:10205000209418181822090909e719191920e7dc32
:10206000080808e618181820e703021fbc1220947d
:10207000181818121fbc122094181818122083194f
:10208000191922e4c397f709e497f709e497f709c8
:10209000e497f722e4c396f608e496f608e496f689
:1020a00008e496f6226017080808c6a2e713c618c7
:1020b000c613c618c613c618c613c6d5e0e92260f3
:1020c00016080808c6c313c618c613c618c613c612
:1020d00018c613c6d5e0ea2270090808082260165f
:1020e000181818c6c333c608c633c608c633c60890
:1020f000c633c6d5e0ea22e627f60809e637f60831
:1021000009e637f60809e637f622e026f608a3e0e6
:1021100036f608a3e036f608a3e036f622e026f00d
:1021200008a3e036f008a3e036f008a3e036f0227a
:10213000c3e697f60809e697f60809e697f6080950
:10214000e697f622c3e0c696f608a3e0c696f60820
:10215000a3e0c696f608a3e0c696f622e657f60870
:1021600009e657f60809e657f60809e657f622e0a9
:1021700056f608a3e056f608a3e056f608a3e05684
:10218000f622e647f60809e647f60809e647f608a4
:1021900009e647f622e667f60809e667f60809e663
:1021a00067f60809e667f622e0f608a3e0f608a35a
:1021b000e0f608a3e0f622e493f608740193f6082b
:1021c000740293f608740393f622e6f008a3e6f08f
:1021d00008a3e6f008a3e6f022cac0e0e6f0a308f0
:1021e000dafad0e0fa22cac0e0e0a30592f0a30533
:1021f00092daf6d0e0ca22cac0e0e493a30592f0d6
:10220000a30592daf5d0e0ca225392fefae9fb79ef
:1022100021e7f0a309dafae8f0a3ebf9f0a3ecf078
:10222000a3edf0a3eef0a3eff0a3e520f0a3e5f01b
:10223000f0a3e592f0a3e584f0a3e585f0a3e581a2
:10224000f0a3e531f0a3e532f0a3e533f0a3d0e04d
:10225000fad0e0f0a3caf0eac0e0e0c0e07a007b88
:1022600000225392fecac0e0ebc0e07921e0f7a360
:1022700009dafae0f8a3e0f9a3e0fca3e0fda3e0ab
:10228000fea3e0ffa3e0f520a3e0f5f0a3e0c0e0ab
:10229000a3e0f584a3e0f585a3d0e0f592d0e0fbc0
:1022a000d0e0fae0f581a3e0f531a3e0f532a3e058
:1022b000f533a3d0e0d0e0e0c0e0a3e0c0e0ea4b1b
:1022c00070027a0122c3e498f8e499f91223068097
:1022d00026c3e49afae49bfbe920e7e9122306e42b
:1022e00098f8e499f922c3e498f8e499f9122306de
:1022f000e498f8e499f9c3e49afae49bfb22eb2012
:10230000e7cfe920e7e0b90010bb0008e88af084d5
:10231000f8aaf022e4fbc8fa22eb70227b10c83343
:10232000c8c933c9335007c39ac3dbf280069a5039
:10233000012adbeac833f4c8c933f4c9fa2275f0bc
:1023400008e4c833c8c933c933c99ac99b5004c902
:102350002ac93bd5f0ecfbc833f4c8e4c9fa2260c3
:102360000d08c6a2e713c618c613c6d5e0f322604f
:102370000c08c6c313c618c613c6d5e0f4227004f1
:1023800022600d18c6c333c608c633c6d5e0f4189c
:1023900022253210af08f532400215338008f5329d
:1023a00040021533d2af22c0d0253210af08f5322b
:1023b000500205338008f53250020533d2afd0d039
:1023c000222532f58210af08f5324002153380081d
:1023d000f53240021533d2af85338322c5822532d0
:1023e000c582c583353310af07f533858232800748
:1023f000f533858232d2afc583222532f582e435aa
:1024000033f583222532f584e43533f58522e473f0
:10241000c0e0e8c0e0e58124fcf8e6a2e7d0e0f8ff
:10242000d0e0225392fe2532c582c0e0e53334ff6e
:10243000c583c0e0e532c3958224f8f8e4c5a885d9
:102440008333858232c5a8e8cef0a3e520f0a378d7
:1024500021e608f0a3defaeff0a3e58124faf8e61e
:1024600008f0a3e608f0a3e608f0a30808e608f0e1
:10247000a3e608f0a315811581d0e0fed0e0f815a1
:102480008115811581e8c0e0eec0e0225392fe255f
:1024900032c582c0e0e53334ffc583c0e0e532c316
:1024a000958224f9f8e4c5a8858333858232c5a8ce
:1024b000e8cef0a3e520f0a37821e608f0a3defa49
:1024c000eff0a3e58124fbf8e608f0a3e608f0a30b
:1024d0000808e608f0a3e608f0a315811581d0e00e
:1024e000fed0e0f815811581e8c0e0eec0e022538f
:1024f00092fe853383853282e0a3fee0a3f5207847
:1025000021e0a3f608dffae0a3ffe0a3c0e0e0a328
:10251000c0e0e0a3c0e0e0a3c0e0e0a3c0e0e4c509
:10252000a8858232858333c5a8d083d0825392fe9a
:102530000211185392fe853383853282e0a3fee0b8
:10254000a3f5207821e0a3f608dffae0a3ffe0a3db
:10255000c0e0e0a3c0e0e0a3c0e0e0a3c0e0e4c5c9
:10256000a8858232858333c5a8d083d0825392fe5a
:1025700022c0925392fec0d02532c582c0e0e5331e
:1025800034ffc583c0e0e532c3958224f210af0862
:102590008583338582328008858333858232d2af4a
:1025a000c8f0a3e9f0a3eaf0a3ebf0a37921e709cf
:1025b000f0a3d8faecf0a3edf0a3eef0a3eff0a3b4
:1025c000d0e0f0a3d0e0f0a3d0e0f0a3e520f0a3aa
:1025d000e5f0f0a3d0e0f0225392fe8533838532fc
:1025e00082e0c0e0a3e0f9a3e0faa3e0fba3782136
:1025f000e0f608a3dffae0fca3e0fda3e0fea3e021
:10260000ffa3e0c0e0a3e0c0e0a3e0f5d0a3e0f5c5
:1026100020a3e0a3f5f0e0a3c0e0e4c5a8858333e0
:10262000858232c5a8d0e0d082d083f592d0e0f880
:10263000d0e032e584f0a3e585f022e0a3f584e064
:10264000f5852274048006740280027401c0e0f4ef
:10265000041223c1d0e01221d9227404800a740329
:102660008006740280027401c0e0f4041223c1d019
:10267000e01221e622d083d082c5f0e493a3c5f016
:10268000c395f0f5f0e493a3c395f04005e5f0049d
:102690008001e475f002a42582f582e5f03583f52a
:1026a00083e493a3c0e0e493c0e022d083d082e926
:1026b000c0e0e493a3c386f0c5f095f0f908e49375
:1026c000a386f0c5f095f0700be493a3c399400581
:1026d000e9048002a3e475f002a42582f582e5f006
:1026e0003583f583d0e0f9e493a3c0e0e493c0e040
:1026f00022d083d082ccc0e0e493a3600612271bd3
:102700001470fae493a3600612273a1470fad0e02a
:10271000fce493a3c0e0e493c0e022c0e0e493a310
:10272000d39c5010e493a3c39c400ad0e0d0e0d0e7
:10273000e002270ea3a3a3d0e022c0e0e493a36ca1
:102740007009d0e0d0e0d0e002270ea3a3d0e022b1
:10275000c0e074f1122571759800e5a8fac2af9037
:102760000498e0d2e1f0753400eaa2e792af1213c8
:102770002d7f010225d8c082c0835392fe906059fc
:10278000e0fa900473e02af0906058e0fa90047444
:10279000e02af090605a1227af90605e1227af9047
:1027a000605ce0fa900476e02af0d083d08222e0e8
:1027b000fa900475e02af022c082c083e45392feae
:1027c000900473f0900474f0900475f09004768097
:1027d000d874f712248ce97b001226f1010203025f
:1027e000280200ea27061d281c289003d0e0a2e357
:1027f000500a9003d3e0602514f0802154fb440874
:1028000080f79003d0e0a2e2500c9003d3e064087c
:10281000600be00480e354f7440480dd0b9003d1a7
:10282000e0700874ff9003cff0806f90600ae07052
:1028300002a3e0703e90618fe0c0e09003d3e0fa25
:102840007408c39af8d0e0b800028004c313d8fc1f
:10285000f52174ff6521700a90600ae4f0a3740109
:10286000801074012521f8e43400f990600ae8f042
:10287000a3e9f0eb60119003d4122e859003cbe016
:1028800028f0a3e039800b9003d2e070047402803a
:102890000114f07ac97b031234a6022edb74f712fe
:1028a000248c74fe1223c1122633e9122675040209
:1028b000d328b828d328c52890048ae06401705e24
:1028c0001216bd80599003e2e0702274ff9003e07d
:1028d000f0804b9003e8e0640170eae49003e2f0da
:1028e0007b09122f6bfa790012193f80317900129f
:1028f00018f78a218b22a821a9229003e4e028fa64
:10290000a3e039fb90618fe0f8741f582af8e43b8c
:10291000f99003dc1234157ada7b031234a6022e06
:10292000cd74f712248c74fe1223c1122633900446
:1029300031122e8f2410fce93400fd90605ce060c1
:10294000088c828d83e0d2e1f0e8242efae934008d
:10295000fbe82430f584e93400f58590605ae07096
:102960000690605ee060338c828d83e0d2e1f0e41b
:102970000592f0a3f0e82420f582e91231fa0592dd
:1029800012355a7403782112237e8a828b83e521c3
:10299000f0a3e522f07900022ecde8241cf582e9af
:1029a000122be8fea3e0ff858482858583e02ef06c
:1029b000a3e03ff08a828b830592e0faa3e0fbc399
:1029c0000592e09aa3e09b50cc88828983a3a3a3bd
:1029d000a3a3a3a38582848583858c828d83e0a2b3
:1029e000e1500474088002743e0592f07b028882f4
:1029f00089830592a3a3a3a3a3a3e0fa79001219e4
:102a00003f7901809274f512248c74fe1223c11256
:102a10002633122ea0a3a3a3a3a3a3858223858379
:102a200024e0fc7003022bcb1231f412311b8e8296
:102a30008f83a3a3a3a3a3a3a3a882a9838e848f18
:102a4000850592a3a3a3a3a3a3ee24321231f70515
:102a500092e06a7003a3e06b701b74026c70030257
:102a60002b7d74016c607374096c603074228882f1
:102a70008983f0801dec1226f1000701da2a027d1d
:102a80002b07cb2b08a92a099c2a0a922a0bb72bc1
:102a9000cb2b7b02122bd07901022bcd906008e06a
:102aa000a2e65003022bcb80e9ee24371231f780e7
:102ab000138a828b83a3a3a3e064037003022bcb4e
:102ac0008a828b8312311bea7001eb70e488828961
:102ad00083e0641370bc74168098ee24531231f7af
:102ae000122e85ee244afcef3400fd74ff28f521f8
:102af00074ff39f522e5216a7003e5226b7041ee1f
:102b0000244b122eba8e828f83a3a3122eaf900471
:102b10007be4f0a3f090047df0a3f0900461e0a2c8
:102b2000e04003022bcb8c828d83e0c333f8e43387
:102b3000f98e828f83a3a3a3a3e8f0a3e9022bca93
:102b4000e86a7002e96b6003022bcb7521097522dc
:102b5000007821122647ee2419122bda1223a790af
:102b60000461e0a2e05007eefaeffb12160fe485d5
:102b70002382852483f07b08122bd0804e74012a97
:102b8000f8e43bf9ee245a122be5687003a3e069e0
:102b900070397521057522007821122647ee2455db
:102ba000fcef3400fdee2422122bda1223a7eefafa
:102bb000effb1216b7800ceefaeffb1213337b0714
:102bc000122bd0e4852382852483f07900022fd450
:102bd0000592e0fa790012193f22faef3400fb1255
:102be0001ea3740222f582ef1234a02274f812247c
:102bf0008c74fe1223c1122633900431e0f584a3b5
:102c0000e0f585122a05e97048122921e97042e5ac
:102c100084242cf582e585122be82401f0a3e0340e
:102c200000f0906008e0c0e0e5842434f582e5859a
:102c30001231fad0e0f0e584241cf582e585122eed
:102c4000bd0592a3a3e028f0a3e039f00592122e6f
:102c50009485328285338312263b74021223a77f28
:102c60000102253374f712248c74fe1223c112263c
:102c700033900480ea241cf584eb3400f58505923a
:102c8000e0f521a3e0f522e521c333f521e5223368
:102c9000f522900463e0122d2dacf08522f0a42cd7
:102ca000fc8521f0e9a42cf90592e028f8a3e0398d
:102cb000f98a828b83a3a3858284858385e8059224
:102cc000f0a3e9f090047b122d38faa3e0fbea852b
:102cd00021f0a4caacf08522f0a42cfc8521f0ebf5
:102ce000a42cfbe8c39af8e99bf974ff281874ff39
:102cf00039f9858284858385e8f0a3e9f090047d25
:102d0000122d38122d2daaf08522f0a42afa852141
:102d1000f0e9a42af97a207b4e1223068821892221
:102d20000592e09521f0a3e09522022eccf8a3e0d5
:102d3000f9e88521f0a4c822e0f521a3e0f522906e
:102d40000463e02274f712248c74fe1223c112264d
:102d500033122ea0858221858322906062e060106c
:102d600079101218f7852182852283eaf0a3ebf00f
:102d7000122a05e96003022e80122921e96003026c
:102d80002e80906008e0c0e0ee24341231f7d0e0ed
:102d9000f0ee2410f584ef3400f5859061d5e0fa6b
:102da0009061d7e06a8584828585836005e0d2e200
:102db0008003e0c2e2f090047de024c0faa3e03496
:102dc00037fb906062e06005123822800312380cf5
:102dd000ee2429122be590047ff0ee241e1231f729
:102de000122e8f7001e9604c8e828f83a3a3a3a360
:102df000a3a3a3a3e0703dee2430122be57002a341
:102e0000e07031ee2437122be57002a3e0702574d8
:102e1000012808e439f9900463123415852182856c
:102e20002283122e85900480123415eefaeffb12e5
:102e30002c6480409004637401f0a3e4f0122eb778
:102e4000852182852283122eaf85218285228305ea
:102e50009290047be0f8a3e0f90592e0c398f8a310
:102e6000e099f974ff281874ff39f98521828522c9
:102e700083123415122e821231f4122eaf122e94b8
:102e8000804b900463122e8922e0f8a3e0f922120d
:102e90002e89e822900431e0faa3e0fb1234a62246
:102ea000900431e0fea3e0ff8e828f83a3a322e093
:102eb00028f0a3e039f022ee241cf582ef3400f56f
:102ec00083122e89e8c333f8e933f922f085328280
:102ed00085338312263b74021223a77f0202253317
:102ee00074f712248c74fe1223c1122633803bc265
:102ef000e5f0122f59e0fa0a0a900488e02af0124d
:102f00002f6bc0e00592122f59d0e0f0900488e0ba
:102f100004f0900489e004f090048be0700c7401dc
:102f2000f07b007a00790012193f900489e0fa9052
:102f3000605ae06a6020900488e004547f2480f89e
:102f4000e43460f9122f6ba2e7888289830592e04e
:102f5000509dd2e5809b022ecd900488e0f8747fce
:102f6000582480f582e43460f58322900431e02413
:102f7000061237542274f512248c74fe1223c112e7
:102f800026330592900431e0f582a3e0f583858233
:102f900084858385a3a3a3a3a3a3e0a2e7402a90eb
:102fa0006054e0f521ae82af838014ee2437faef4f
:102fb0003400fb1215e5ea7001eb60031217b9aaa1
:102fc0002174ff2af521ea70e2853282853383532a
:102fd00092fe800685328285338312263b7402126c
:102fe00023a77f04022533c0e074f11225718535d3
:102ff000c675a70079501219157f010225d875bf33
:103000000032c0e0c0d075d008c092c082c084c079
:1030100083c085c0f08535c6e591fe759b00f4f54b
:1030200091eea2e05003122ee0eea2e55003122f23
:1030300075eea2e7501ae5a8fac2af5392fe9004cb
:1030400098e0d2e0123775e594a2e240037594034c
:1030500074c05e70030231025392fe900431e0703e
:1030600002a3e07003023102122ee0eea2e6500746
:10307000906061e0f980027906900489e0fa90049a
:103080008ae02af0e4900489f090043112311b8a1e
:10309000828b83a3a3a3a3a3a3e0122675fc02b68d
:1030a00030b130ac30a7301227d1804e12289d802d
:1030b000491216098044906060e06480602ce0c092
:1030c000e0ea2411f582eb1231fad0e0f090606072
:1030d000e0c0e0900431e0242a123750243cf5820d
:1030e000e43404f583d0e00592f0900461e0a2e0be
:1030f0005005122d448003122bec1227761215f77f
:103100008005eea2e75003123562d0f0d085d0835f
:10311000d084d082d092d0d0d0e032e0faa3e0fbcd
:103120002274f712248c74fe1223c11226339004e9
:1031300031e0fca3e0fd122e82ec2429faed3400ec
:10314000fb8a848b85ec2427f582ed1231fa740119
:10315000687001e97012e0fa0592e02afac394253a
:10316000402774db2afa8021e0f521e88521f0a4cc
:10317000f8aaf08521f0e9a42af90592e028f8e4fc
:1031800039f97a257b00122306eaf074075af8749d
:1031900001b800028004c333d8fcc0e0ea13131363
:1031a000541ff8ec28f8ed3400f9742228f582e475
:1031b00039f583d0e0fb0592e05b702b8005e0ca17
:1031c000c39afaec24e3f582ed122be8fbeac39be9
:1031d00050ec8a21ec2521f8ed3400f974be28f575
:1031e00082e439f583e0faec242af582ed1231fa13
:1031f000ea022eccee242cf582ef3400f583227403
:10320000f512248c74fe1223c11226339003e3e0de
:10321000906001f090098478211221a8906195783e
:10322000211221ca12173b9003e8e0fe74016e9050
:1032300003e17040e05402f97ae97b0312162d9005
:1032400003e1e0a2e050097a6d7b0475214080071c
:103250007a677b04752100a2e150047e8080027ea3
:1032600000752306782312264b7ce97d03ee452169
:1032700044018063e0a2e050087a6d7b04784080ce
:10328000067a677b047800059290040e1226667c0d
:10329000ef7d03ee2488f582e43409f5830592e09e
:1032a00048f912163374011223a7ee600574026efa
:1032b000702e9003e1e0a2e050087a6d7b04784024
:1032c00080067a677b047800059290042e122666a9
:1032d0007c0f7d04e84404f912163374011223a70d
:1032e0009003e1e0a2e0e492e0f912162775910064
:1032f00074c0906182f0022fd474f512248c900374
:10330000d2e004f064037002e4f0e0242590600051
:10331000f090098478211221a890619578211221da
:10332000ca9003d0e05420f912162712173b9003dd
:10333000d0e0a2e15004d2f08002c2f0a2f0e49208
:10334000e090600cf09003d0e0a2e1503575d90d0b
:10335000a2e55004784080027800e84403f5d9e003
:10336000a2e550067a6d7b0480047a677b047906b7
:103370001215fd740675d9001470fae5e170fc753c
:10338000e19575910074c0906182f0022fe274f5ae
:1033900012248c74fe1223c112263312341b122104
:1033a000a890619578211221ca12344ff584ef3428
:1033b00000f585858482858583123433ee241012ce
:1033c0002be5a2e250170592e0f582a3e0f5830514
:1033d00092a3a3e02402fa9061d5e02af0022fd450
:1033e00074f512248c12341b1221a8906195782157
:1033f0001221ca12344f1231f7123433122eb7741d
:10340000fc28f874ff39f98e828f83a3a3a3a3123b
:103410003415022fe2e8f0a3e9f022900431e0fe37
:10342000a3e0ff12173bee2412f582ef3400f58380
:10343000782122122e89ee2435f582ef3400f583af
:10344000e8f0a3e9f07900eefaeffb12172f2274ef
:1034500002906003f0ee243412349d906008f0ee88
:10346000241612349d906005f0ee241712349d90be
:103470006006f0ee241812349d906007f07480907e
:103480006060f0123121ee242a12349d906000f029
:1034900075910074c0906182f0ee243722f582efbe
:1034a0003400f583e02274f712248c74fe1223c1d9
:1034b000122633ea7001eb700302353da2afe492ad
:1034c000e0fcc2af900438e0f584a3e0f585a88461
:1034d000a985e87001e960148a828b83a3a3e0feca
:1034e000a3e0ff1235407002e52260148a828b83cc
:1034f000e584f0a3e585f0900438eaf0a3eb80378b
:10350000888289831237607002e52260208884896e
:1035100085a821a9221235407002e52260e28a8244
:103520008b8312341585848285858380cd8882893a
:1035300083123746e4f0a3f0eca2e092af022ecd66
:1035400088828983a3a312355aeec39521ef952271
:10355000f52274805522f522e422e0f521a3e0f55e
:10356000222274f312248c74fe1223c112263379a2
:10357000001218f78a238b24900431e4f0a3f09012
:10358000043812311bea7001eb70030236649004b8
:1035900031123746122e859004381234158a848be6
:1035a000850592a3a3858482858583059280208ae0
:1035b000828b83a3a3a3a3e0fca3e0fd8584828583
:1035c0008583e02cf0a3e03df0858482858583121d
:1035d0003760c39523e5229524c312373e50158ae0
:1035e000828b83a3a3a3a3a3a3e0a2e740c1852367
:1035f000218524228a828b83a3a3a3a3e0fca3e0da
:10360000fdec2521feed3522ffe87001e9607188af
:10361000828983a3a3122e8fc39ef525e99ff526e9
:10362000c3e525940212373c50568a828b83a3a3ac
:10363000a3a3a3a3e0a2e7503fe8c39521f525e9a2
:103640009522f526c3e525940312373c502a0592ae
:10365000e02cf0a3e03df01234a6900431e07002bb
:10366000a3e0701c123766e594a2e2500375940043
:10367000797712191502372674fe28fe74ff39ff78
:10368000aa21ab227930121909eefaeffb79401228
:1036900019097954121915122f6b0592122675fc0f
:1036a00002b836b336a936ae361231ff801a12325e
:1036b000f980151217418010900461e0a2e05005d6
:1036c00012338e80031233e0e521c39523f8e522ff
:1036d0009524f9c3e89402e912373e502212175399
:1036e000e5e170fc75e121900431e02404123750cb
:1036f0002521faa3e03522fb794012190980279091
:1037000005e0e0a2e0401caa21ab221219038a21a5
:103710008b228c238d2490047778211221ca1237b2
:103720006680031217531217d785328285338312ae
:10373000263b74021223a77f06022533e526940058
:10374000a2d265d03322eaf0a3ebf08a828b8322e7
:1037500012375422f584a3e03400f5850592e02267
:1037600012355ae52122e5a8fac2af900498e0c2ca
:10377000e012377522f0753400eaa2e792af22001a
:10378000853487c2af22c0e0c0d075d010c092c0cf
:1037900021c022c023c024c082c083c0f074fc12a8
:1037a00023915392fe900499e06017121621900520
:1037b000e0e05411700375c687e4900499f0c2c725
:1037c0008030c2c7853282853383aa82ab831217c9
:1037d0004de96401701c7401900499f08532828572
:1037e000338378211221a8aa21ab22ac23ad241265
:1037f00017cb74041223a7d0f0d083d082d024d06a
:1038000023d022d021d092d0d0d0e03275c3007422
:1038100020c39afa744e9bfbeaf5a2ebf5a35392f0
:10382000fe22c02175c301e5a2f521e5a375c30001
:10383000f9a821742028f8744e39f9e8c39af8e9f8
:103840009bf9e8f5a2e9f5a3d0215392fe2274f585
:1038500012248c74fc122391e5a8fac2afe5958579
:103860003282853383f0e596c0e074011223fad0ea
:10387000e0f0e597c0e074021223fad0e0f0eaa28b
:10388000e792af74031223fae4f085328285338322
:1038900078211221a8aa21ab22ac23ad24740412f2
:1038a00023a77f04022533c0e074ee12257112397c
:1038b000001221cae5ab55899005e6f0e580900538
:1038c000e9f07b007a00790612193f758900c2c5bc
:1038d0007f040225d8c0e074ee122571123900125f
:1038e00021cae58d558a9005e7f0e5909005eaf04c
:1038f0007b017a00790612193f758a00c2eb80d0ed
:1039000012384e8a218b228c238d249005e2782157
:1039100022c0e074f0122571e49061a9f0e5bbf9d2
:10392000e5bafae9fb9005f0e0c333f8e433f9e8cf
:1039300024f1f582e93405f583eaf0a3ebf0900574
:10394000f0e02410fb7a00790612193fe5a8fac2cc
:10395000af900498e0c2e2f0753400eaa2e792afbb
:103960007f020225d8c0e0c0d075d018c092c02117
:10397000c022c082c083c0f05392fe9007d6123a94
:103980008a9007d7e06e602a900791e0700c74016e
:10399000f07b007a00790412193fee9007d6f0e52b
:1039a000c1c0e0e52124d8f582e43407f583d0e0f6
:1039b000800be5c4a2e650067401900790f0023a2d
:1039c00079c0e0c0d075d018c092c021c022c0829a
:1039d000c083c0f0c2e95392fe900793e0fc9007c9
:1039e00092e09c543ffa6029ec2494f582e4340779
:1039f000f583e0fb74012c543f900793f08bc1904a
:103a000007d4e06a70197b027a00790412193f80aa
:103a10000ee5a8fac2af900498e0c2e3123af5802e
:103a200058c0e0c0d075d018c092c021c022c0825a
:103a3000c083c0f05392fe900860123a8a900861e9
:103a4000e06e602990081be0700b7401f07b00fab7
:103a5000790412193fee900860f0e5f9c0e0e52125
:103a60002462f582e43408f583d0e0800be5fba204
:103a7000e65006740190081af0d0f0d083d082d0be
:103a800022d021d092d0d0d0e032e0f521740125af
:103a900021543ffe22c0e0c0d075d018c092c02192
:103aa000c022c082c083c0f0c2ea5392fe90081dbb
:103ab000e0fc90081ce09c543ffa6029ec241ef5c1
:103ac00082e43408f583e0fb74012c543f90081d18
:103ad000f08bf990085ee06a70197b027a01790434
:103ae00012193f800ee5a8fac2af900498e0c2e434
:103af000123af58084f0753400eaa2e792af22c052
:103b0000e074f0122571906206e0f89008b8e04881
:103b1000f0a3e0f0906202e0f8743f58f5217522be
:103b2000007404782112237e9008b8e04521f0a3a8
:103b3000e04522f0906204e0f8743e58f5217522c9
:103b4000007409782112237e9008b8e0f0a3e045c4
:103b500022f09008b8e05404600ae054fbf0a3e0bf
:103b6000f0121ddd9008b8e07002a3e060097b014f
:103b70007a00790712193f758b00c2e87f0202258f
:103b8000d8033f0000030004280d98089007900117
:103b900094011b0195111b08f00939821f0ea4fe28
:103ba000cd82210622fb381818162118f0ef38189c
:103bb000f2ed3828f2eb3868f003392a1fe73f08a6
:103bc000f00428ba3868f0393c08f1053c88f11750
:103bd0003ca8f10e3ce09f2c1f0128104a291fd65b
:103be0003f15d0033827d00938009004289f3f01a3
:103bf00028154101980128014a25d01f38041f8348
:103c00001f0ea4fecd042205381421202807a00889
:103c10003f0628681527d0e939202807d0f23883d5
:103c20002178f10238042188f1083d0628a14001dd
:103c3000f004288438042807a005284d1528f1161b
:103c40003c68f1143d77cf1240599202d80f3912d7
:103c5000d00739699222d00439799242d0043805cc
:103c600028ef151e3fc09f04286c3f08f1233c88b5
:103c7000f1203d094028f1103d4540f7c759f208b1
:103c80003d9303131183e1b9f00f3c23e00d3f098d
:103c9000d8ea38f9c30b3f68f1033d59f2f23c0909
:103ca000d8f9390528bd150528f0150190012821fe
:103cb0004a051f48f00c3c08f10a3868f1033c98ab
:103cc000f106390c960528f9150228843f47a00c07
:103cd000960528f315531f0528e31507288ced05d5
:103ce00028ec1501280195711b01280ce40528e535
:103cf00015511f88f10b3808f1073868f1093901af
:103d000028214201f00b3947d009383521063f28d8
:103d1000f1033838f10339351f341f04280ce0470c
:103d2000d0033903280ce80528c815571f28f006ca
:103d300038561f811f021f38f0063930215b90056d
:103d4000283b15fd3f88f1033d0428f71505288120
:103d50001547d0133808f10f392c470cf00c38c434
:103d600003b4125c110c3e04f00a38c10380280130
:103d7000a0411b063f3021043f07284ced4c1b5b44
:103d80009047d0173827d00328e8390ea4fecd027b
:103d9000220d39002208381021002914e00328dd03
:103da0003c4c1bf13f05289e15ee3f46181221039f
:103db0003f0528021588f13039052811150128fb27
:103dc00041302100291be00a3d0428f6150528078b
:103dd00015f6c35192166a3b906b080428ed150442
:103de00028fe150bf0fb3917d004382d1f0128c40d
:103df0003f0328214701f008390328314701f00427
:103e000039a2958090033fc29500920328b61520f1
:103e10001b54900128b33f08f10539052111900189
:103e200028214a38f103390021023f302110216a4c
:103e3000030428c2156b033141224128f1093d02d8
:103e4000f00239f29101f00b39ff28f191083f029d
:103e5000f00239529201f00339ff28f193f7cb1b9e
:103e600006023907a4b20c073d47d003286e382458
:103e7000900328753f1690b6080428b115a60304d0
:103e800028ae153be0f7ce28f1703c012807a0f0e2
:103e900090a00668f1323d149030f0053938f103f6
:103ea000285e38073f50f003285a3958f103285745
:103eb0003838f104380328ab15033f03288915036c
:103ec000287515012807d0033907a1563f42413014
:103ed000f00c3907a112d0033807d84e3887a0c19b
:103ee0004041d04a38f7ce483f38f1033822d04419
:103ef0003807d8423907a1403f78f1123847d02d12
:103f00003800f0033860f00639c14011d007388717
:103f1000a0113f10f0033820f0ab3977cf0b3f00f2
:103f2000f0033810f0a539414181d00439032850fd
:103f300015093f03286c1568f10539414141d0024c
:103f40003907b810f0063903283115012807d003c6
:103f50003807d8123907a1103f40f00228fc390376
:103f600028141507d8f838083fa1038340311231cf
:103f70000511d0023907a14bf0063c04281d150499
:103f8000282e15fa3f042818151bf0fd3d38f103c3
:103f9000380328a115f7cd0328214701f00539037f
:103fa00028314701f0033807a2f7ce224082d00a19
:103fb0003806030428141506937606261196040481
:103fc000280e1571034112002871c021070438e73b
:103fd000cf4198043f17d00439519807282148173a
:103fe000d00538f295202800901d3f07d20438c232
:103ff000950092183f07d10438d2950094133f07db
:10400000d40438e29500980e3f809028f10a3d31a3
:1040100090a10631f0063903a4b2950228aa150032
:10402000a1a2950228a615201b28f1633d08f10adc
:1040300039012807d00739072851411128c14a0101
:104040002807a017d20539e3cf8ad0023813a0077a
:10405000d20539b3cf4ad0023843a083d01e3931bc
:10406000031112310521d007393199072821480061
:104070002915e0133f529502287c15454003d10dc8
:1040800039429502287615281f21990728214803cf
:10409000d20438629502286d1573cf834808f10960
:1040a0003977cf17d0063907d203390ad1023887ba
:1040b000a0349007d2073807d803383090543f0710
:1040c000a8023ff7c718f15a3927d04c39314011af
:1040d000d0493987d0073917d0453907d203390a73
:1040e000d1413805f04b39414001f0483850903b00
:1040f0003f68f1153878f13938149017d03d3907f9
:10410000d23d3987d003383490393f07d137391140
:10411000900128214a409003286e15253f47d01c66
:1041200038249007d30c3911900128214a87d008f0
:10413000385144002911e0043a514c023877cf1726
:10414000d01b3987d003383490193f07d31739c1b2
:104150004021d01438073f17d00f3907d303383028
:1041600090023f009044900a3f249017d0053907f1
:10417000d305393490033fa09f44900221c1905150
:104180001b8121342124f0083927d004390c9cfdef
:104190002bae3f10904490b7cf34f00e395321032b
:1041a00028e195711b541f0f28cc9506282141f159
:1041b000c081111c09143f0190511b0728f19f7108
:1041c0001b802114f00128863854f0fd2b0a380199
:1041d00028ad3f541f032864151028cced03286d2b
:1041e0001576217821501f0128a29a217001b22151
:1041f0008001b221802ce30328601574210128acd2
:10420000e408f1073c88f1033d02289715032821b3
:1042100015011f0128349d03285015201f00216817
:10422000f0093d069058f0033907283641022893db
:1042300015fa3f0728504078f10439331f321f0424
:1042400021500000dc01287c3828f1103d8340f724
:10425000cb31031112310521d0033903d1033900c9
:10426000d8103807a41b901a90163f00d801286870
:104270003998f107394b700128e2412b0800288e4c
:104280003f102807a04b701bf0fc2bed3c4a70221e
:104290004128f1303d02f00239f29112e0b20cfcfb
:1042a0002be23c419031061111ff2be29f32045268
:1042b0000022111a042a043240002862c018f103b7
:1042c0003927d00d3922f0093907280141b10900f9
:1042d0002921e0093a0aa1073f42f00339face0347
:1042e0003f62f0f93818f1253977cf0ad1223887a3
:1042f000a0203f02f00239529212e0b20cfc2bb324
:104300003c68f1123d38f1153887d0133901283156
:104310004201f00f38402807a00728914231c0c160
:10432000a00728914a063f02280190710621121a1f
:1043300004ff2bf29fb2084be0a60302280c1526bf
:10434000030228091568f1293cfbf0273c629046de
:104350007002280115d237042860966290467006d4
:104360002d0128f915c23778f11839d04000d81539
:1043700038dbf0133c829046700128ed15d2377679
:104380004400d40338060e023f060d41700128e3b5
:1043900015417086120128df153290b20c053d469a
:1043a000700128d915fb3f08f1063941721128c167
:1043b0004a012807a0ef28f7cf28f11e3d8340309f
:1043c00090a00631031112310521d00339829504e2
:1043d0003f30f0043972950028cc1553c843d00201
:1043e0003823a007d4023803a130f0023903a28396
:1043f0004892950028be1506900bf005380128abb1
:1044000015591ffb3f0ea4fecd0122043902286a74
:1044100015fa3f551f1121031f249008f10f390a87
:10442000d1033987d02438314011d0213905f0210a
:1044300039414001f01e3850901b3f48f1073828a1
:10444000f1033858f1063987d0143877cf1490111a
:104450003f78f1053911900128214a093f98f10967
:1044600039829500288a15281f5490033f009044f4
:10447000900ea4fecd0322043902283415fa3f130e
:10448000212c1801210321741ff1900000f1370144
:1044900090511b0728f19f711b8021322107289121
:1044a0004231c00728914abf28f7cf28f1063c883f
:1044b000f1043d92955e15281f44f0383814f00a37
:1044c0003854f0fb2b8e3801280ce40128f615fc3b
:1044d0002b023f01289015009027d0283902d808d8
:1044e0003838f12439329001289215e237193f19f2
:1044f000e089f2043c38f11a39599238f103390154
:1045000028861512409103002951e2120e12d0f0b4
:1045100038012886150128b9151240012891153156
:1045200099072821482c18fe2b553f0128104a00d6
:1045300028a915fb2b2b3ff09f043fd09f023fb0d3
:104540009f0028d0152c1ff23f28f1053c68f1038d
:104550003d1490053f2090023f10904490419807f1
:1045600028214838f1fe2b0a380028b515fe2b0605
:104570003f217011e02180020001282141072821fc
:1045800048217811e021880200f7c77615710331c0
:1045900012a10501d4023907a80428649631150236
:1045a00038f7c70428c4f6fb3c0200fe28f7cf64a6
:1045b0001551417111a10501d80339012807a064e3
:1045c000911f150338fe28f7cfc4f1fb3c0200f71a
:1045d000c753155141022807a00ad40339fd28f713
:1045e000cf5111a10501d4023907a8c4910428654f
:1045f0009607150238f7c7563124f2fb3c0200003b
:1046000028db150028ec15412d160c0200f7c734e5
:1046100015d032d332234268f109394141904041eb
:10462000d0043850000306023f030331420228073a
:10463000a00ad404395100fd28f7cf130644920490
:104640002865960028b9150028ca155631ff28e1bb
:104650009f4070060c023813068ea0810064e0446f
:10466000f5f83c0029f4e2a4f2ed3c03f00238072f
:10467000a8d32fd02f02009bf0023c020007a12def
:10468000e0020098f10938102807d0033908f10436
:104690003831990728214808f10c39012807d00939
:1046a00038072851411128c042010c03380728500f
:1046b000491190082807d005380628b148f728f78f
:1046c000cf042807d005380628a148fb28f7cf30ab
:1046d00021291f0200311fff28f19f411b301f318c
:1046e000210200022101210321532309380628d188
:1046f0004001d112384198072821480b3f54230c20
:10470000385021f1910000f137741ff1900000f151
:104710003768f0023c2b1f0190511b81210728f1c3
:104720009f711b80210728914231c00728914abf01
:1047300028f7cf322134210200082807d007390694
:1047400028b14001f00438082807a0020004280d11
:1047500098fe2bf43f402807d00d390ea4fecd0162
:104760002204390028bf15fa3f661b112100291bbe
:10477000e002000728a64a0ea4fecd01220439005b
:1047800028b115fa3f01283142b10941e0053a0844
:10479000384bf00c38ea3d0728a142611be73f0780
:1047a00028914271cf0728914af73f07289142810b
:1047b000a20728914ada3f0ea4fecd022204390056
:1047c000289115fa3f4618122100291be01bf0061c
:1047d00039581f0628e0400128004a020017d00a75
:1047e000393122063817a0419807282148033f078e
:1047f00028a6480200124038f1093802d80739913a
:1048000003002941e2120e120d1248020047a07b5c
:10481000280c9c10215215ff2b5e15b7cf020059b2
:10482000f203396391083f69f20339e392043f7957
:10483000f203394396020004280d98fa2b143f0224
:10484000d407389103002901e2117006286148025b
:104850000088f10a3c012831410728814ab146030a
:1048600028314fa1460f3f0728894a28f1063d31dc
:10487000440328314f5140053f55285195032831b5
:104880004f81110328214f0200e3f3033cf1900311
:104890003f23e051920628614a0628434802007be4
:1048a00021772141900000f137702175217a218c08
:1048b000ee0415521f801f02004c1b001f47d0033f
:1048c0003827d009390ea4fecd002203390b15f785
:1048d0003f1021020004280d9838f1fe2b2738fee6
:1048e0002b3c3fd23202180119210601d41a38128a
:1048f00018162162f003392a1f2d3f12f2153822b3
:10490000f22838fe2bef1568f0063c619001281163
:104910004afe2bb8153021280304280d98f92b37af
:104920003f01d114381421202807d00d3878f11216
:104930003904231038714401f002398144002911ef
:10494000e0714c083f202807a0053f01d20538152b
:104950002127a0d22f020011d00638102104280de3
:1049600098fd2bf33ff2ce5200121bf43f000100e2
:104970000002000000291a0000000100000000539e
:104980001a0000000200000000651a000300032462
:10499000000000471a00020004040000004d1a0045
:1049a00000000500000000951a000000060000004d
:1049b00000fb1a0005000726000000ad1a000000e9
:1049c0000800000000311b00020009820000008f77
:1049d0001a0007000a2a000000371b0007000b2af4
:1049e0000000003d1b0000000c00000000431b0005
:1049f00002000d22000000831a0003000e220200b4
:104a000000891a0000010000000000a71a00000140
:104a10000100000000251b00000102000000009bb7
:104a20001a0003010384000000b91a000201040403
:104a3000000000b31a0002010504000000a11a00e2
:104a400001010602000000591a000301078400005a
:104a5000005f1a0004020024080000071b00040283
:104a60000144000000e1190002020204000000e716
:104a7000190003020322080000d5190002020422d3
:104a8000000000db190001030002000000c3190050
:104a9000010301020000002b1b0009030242440431
:104aa00000bd190001030302000000411a000103c8
:104ab00004020000002f1a000203058200000035e6
:104ac0001a00010306020000003b1a00010307025e
:104ad000000000b71900020308820000008d1900d1
:104ae00008040042440800c9190006040142840079
:104af00000ed190006040242840000f919000504c3
:104b00000342040000f3190003040442000000ff04
:104b10001900040405420800000b1a0004040642b0
:104b2000080000231a0001040702000000cf19004a
:104b300003040842000000051a000604094284002c
:104b400000111a0002040a22000000171a000204d1
:104b50000b820000001d1a00020500220000007deb
:104b60001a00010501020000000d1b0001050202f0
:104b7000000000191b0003050322020000131b00a4
:104b8000050504620000001f1b0000050500000071
:104b900000f51a0001050608000000c51a0002060b
:104ba0000022000000bf1a0002060122000000d10e
:104bb0001a0001060202000000d71a000f06032a9d
:104bc000444400e91a0000060400000000ef1a0047
:104bd00008060544440000dd1a0003060622020010
:104be00000e31a0005060744020000711a000506da
:104bf0000844020000771a00020609820000006bd8
:104c00001a0007060a2a000000cb1a000307002238
:104c10000200005b1b0006070126020000671b0064
:104c200003070222020000611b00020703220000aa
:104c3000006d1b0002070422000000731b00030725
:104c40000522020000791b00030706220200007ff4
:104c50001b0002070722000000851b000607082230
:104c6000222200971b00020709820000009d1b0002
:104c700003070a220200008b1b0003070b22080017
:104c800000911b0001070c03000000011b00050739
:104c90000d22420000a31b0003080022020000991d
:104ca0001900010801020000009f1900000802001d
:104cb000000000a5190000080300000000ab190067
:104cc00000080400000000b11900010805080000f8
:104cd0000093190000000000000000491b000000c4
:104ce0000100000000491b000600020a0000004904
:104cf0001b0002000304000000491b000300042401
:104d0000000000491b0005000522220200491b008b
:104d100001000602000000491b0005000786000094
:104d200000491b000c000844442402491b000200f7
:104d30000904000000491b0002000a0400000049a9
:104d40001b0002000b04000000491b0000000c00c7
:104d5000000000491b0003000d84000000491b00f7
:104d600002000e04000000491b00000100000000ca
:104d700000491b0000010100000000491b00000168
:104d80000200000000491b0002010304000000496a
:104d90001b0003010484000000491b000001050002
:104da000000000491b0002010604000000491b002e
:104db00000010700000000491b000202000400007f
:104dc00000491b0007020144840000491b00050242
:104dd0000244080000491b000002030000000049d3
:104de0001b0000020400000000491b0003030042f6
:104df000000000491b0002030132000000491b00b3
:104e000003030242000000491b00030303420000a9
:104e100000491b0002030482000000491b00030339
:104e20000542000000491b00030306420000004940
:104e30001b0001030702000000491b0001030802d8
:104e4000000000491b0003040042000000491b0051
:104e500003040142000000491b0003040242000059
:104e600000491b0003040342000000491b00030427
:104e70000442000000491b000304054200000049f1
:104e80001b0003040642000000491b000204070443
:104e9000000000491b0003040842000000491b00f9
:104ea00003040942000000491b0003040a420000f9
:104eb00000491b0003040b42000000491b000305ce
:104ec0000042000000491b000005010000000049ed
:104ed0001b0002050204000000491b00000503003e
:104ee000000000491b0002050404000000491b00eb
:104ef00001050502000000491b0000050600000036
:104f000000491b0000060000000000491b000206cb
:104f10000104000000491b000206020400000049d1
:104f20001b0003060324000000491b0002060404c2
:104f3000000000491b0003060524000000491b0077
:104f400002060604000000491b00020607040000d8
:104f500000491b0002060804000000491b0002066d
:104f60000904000000491b0002060a040000004971
:104f70001b0002070004000000491b000207010497
:104f8000000000491b0002070204000000491b004a
:104f900002070304000000491b000207040400008c
:104fa00000491b0002070504000000491b0002071e
:104fb0000604000000491b00040707240200004902
:104fc0001b0002070804000000491b000407092415
:104fd000080000491b0003070a84000000491b0069
:104fe00001070b02000000491b0000070c00000035
:104ff00000491b0002070d04000000491b000008c7
:105000000000000000491b000008010000000049ea
:105010001b0002080204000000491b0000080300f6
:10502000000000491b0001080408000000491b00a3
:1050300001080508000000491b800c0000444424be
:1050400002491b8001000108000000491b8002008a
:105050000222000000491b800200032200000049d8
:105060001b8004000444000000491b8003010084ed
:10507000000000491b8007020022440800491b80f1
:1050800005020142040000491b80030202240000c3
:1050900000491b80100300222a4424491b80060378
:1050a0000122440000491b800203028200000049e3
:1050b0001b8002030382000000491b80030304429b
:1050c000000000491b8003040042000000491b80cf
:1050d00005040142040000491b80060402428400ca
:1050e00000491b8007040342240800491b80040474
:1050f0000442080000491b80050405428200004963
:105100001b8002040682000000491b800305002268
:10511000080000491b8003050142000000491b8074
:1051200005050262000000491b8001050302000022
:1051300000491b8004050422220000491b800b0645
:1051400000232a8200491b80020601220000004938
:105150001b8007070026220000491b80010701026f
:10516000000000491b8003070252000000491b0099
:105170000000000000000000000e0a0f2c0a083c8e
:105180000a05460a09580a0c700a077e0a0b940a97
:105190000eb00a0674f612242375210c75220078cd
:1051a000211226477c007d007a547b60121ea902e2
:1051b0007d27c082c0838a828b8380075392fee062
:1051c000f5d9a3e91970f5026e67c082c0838a829f
:1051d0008b838007e5d95392fef0a3e91970f5029d
:1051e0006e6774f712242374fe1223c1122633e96a
:1051f0001226f1000200fd51061252125290048a4a
:10520000e0640170399003d1e0640170311216b18d
:10521000802c9003d1e0700874ff9003cff0801ec3
:1052200005929003d8e0241cf582a3e012662712b1
:105230007a1c9003cbe028f0a3e039125bc0026532
:105240003274f612242374fe1223c11226338a8488
:105250008b85e5842428127aa0c333f8e433f9e877
:105260002474f582e93409f583e024faf521a3e0fa
:105270003400f522e584241cf582e58512662712a8
:1052800072fce88521f0a4c8aaf08522f0a42afacd
:105290008521f0e9a42af9741f28f8740339f97af2
:1052a000207b0312230688218922ac21ad227a714a
:1052b0007b021223068a218b227405782112237e19
:1052c00090047de521f0a3e522f0ecf8edf97a7188
:1052d0007b0212230690047b127a10ec33fced3330
:1052e000fd0592a3a3a3a3ecf0a3edf08532828584
:1052f00033830592027d2474f0122423900abc7833
:10530000251221a890618fe0c0e085252185262205
:10531000ea2521f582eb3522f583d0e0f0900b09e8
:10532000782512210a900b0d78211221a878217975
:1053300025121eee40ce7a000aeac3942040f902fc
:10534000763074f612242374fe1223c11226338a97
:10535000848b85e9701c752108752200782112263e
:10536000477c007d00127c0c1223a774010592f08b
:1053700080270592e0a2e0e492e0f0752107752213
:1053800000059278211226477c007d000592a3aa91
:1053900084ab85127c0c1223a7853282853383531c
:1053a00092fe027d2474f7122423900498e0a2e078
:1053b000402ae59cfe759c001217538e9c90049821
:1053c000e0d2e0f0753400e59ea2e640fae594a252
:1053d000e24009759403e594a2e250fa026d3a7432
:1053e000f6122423e9fe60067c6d7d0480047c6750
:1053f0007d0475210675220078211226477a167bd6
:10540000601263b61223a7906015e0c2e0f0ee6070
:1054100004780180027800e048f0027d2c74f612d6
:105420002423e9fe7521067522007821122647ea19
:10543000fcebfd7a1c7b601263b61223a79060150b
:10544000e0c2e1f0ee600478028002780080c87467
:10545000f712242374fe1223c1122633e9fe8c8432
:105460008d85740b1223fae0ff74072ff5d98ed9be
:1054700079061215fd8007439201e0f5d9a3ef1fcd
:1054800070f5e5e170fc75e195026d2974f6122462
:1054900023e9ff900431e07002a3e06004793a80d0
:1054a00053906022e0fc74ff6c7004790780457ea5
:1054b0000080040ec313fceca2e040f775210675d2
:1054c00022007821122647eafcebfdee1263b312ac
:1054d00023a7752101ee782112237eae21eef4fa86
:1054e000906023e05af0ef6003e04ef0906022e01d
:1054f0004ef07900027d2c74f312242374fe1223e3
:10550000c112263389258a848b85900431e070028c
:10551000a3e06004793a806b906022e0f52290600d
:1055200023e0ff7521017e00e5215522604685219b
:1055300082a882e5256004e8fa80027a008f23e8d9
:105540005523f8ea687001e4702a75230675240073
:105550007823122647ac84ad85ee1268bd1223a7ce
:10556000ea7001eb700ee521f4fa906022e05af047
:105570007900800f0ee521c333f521eec394084076
:10558000a7791285328285338312263b7402122357
:10559000a77f050224efc082c083e45392fe90608f
:1055a00022025c0774f012242374fe1223c1122617
:1055b0003374fb12239174021223fae9f07403127c
:1055c00023faecf0a3edf08a278b2874171223fa44
:1055d000e0f52374181223fa127a16900461e0a2ff
:1055e000e05005790c0258919003cfe064ff70f30e
:1055f000900493e0f52412175f8a218b22ea700150
:10560000eb70057909025891853282853383e4f085
:10561000a3f0e52460207a00e524a2e0400bc31348
:10562000f5240aeac3940740efea1258a3853282b0
:10563000853383127a108521828b83a3a3a3a3a32e
:10564000a3e0c0e074031223fa126a10d0e00592be
:10565000f0e5277002e528604475250675260005eb
:10566000927825122647ac27ad28e5212409faebcc
:105670001266381223a7e5212410f8e522126c06e1
:1056800074021223fae005926005e0d2e08003e0a4
:10569000c2e0f00592906014e0c2e38008059290a9
:1056a0006014e0d2e3f0e52360047a0180027a001e
:1056b000900465e054fef8a3e0f974015a489004a0
:1056c000651278762429f582e522126627e4f0e552
:1056d000212412fae5223400fb1216157a0090619b
:1056e0008fe0c0e08a23e5212523f8e5223400f984
:1056f000741628f582e439f583d0e0f00aeac39401
:105700000340db125ba61270e0858482858583ee00
:10571000f0a3eff0741a1223fa1272fce521242090
:10572000f582e522126627e8f0a3e9126a08126cf6
:1057300023e521242ef582e522127a0d741c122312
:10574000fa1272fce521241ef582e5221266271268
:1057500078752428f582e5221266277401f0e52188
:105760002419f582e5221266277402f0125896e594
:1057700021241af582e522126627e80592127a1191
:10578000900487e0c0e0e52124e3f582e52212667b
:1057900027d0e0f075230575240078231226477c76
:1057a000827d04e5212422fae5221266381223a71d
:1057b000aa21ab221216b790618fe054072405c0ce
:1057c000e0e5212427f582e522126627d0e0f0e506
:1057d00094a2e24009759403e594a2e250fa85325e
:1057e00082853383e07002a3e0700f79001218f70e
:1057f0009003cbeaf0a3eb02587feec333feef3306
:10580000ff853282853383126a100592a3a3e02eae
:10581000f8a3e03ff905929003cb1272f5f8eff987
:10582000900492e0fa7b0012230688238924ae2399
:1058300085328285338312788bf523e88523f0a4a3
:10584000f8aaf08523f0e9a42af905929003cbc3c6
:10585000e098f0a3e099f0852182852283a3a3a399
:10586000a3a3a3e0f523ee8523f0a4feaaf08523ed
:10587000f0e524a42aff9003cbe02ef0a3e03ff054
:105880009003d8e521f0a3e522f074fc125bb07917
:1058900000740502761f0592e0f8a3e0f922eafc05
:1058a000ebfdee75f0e4a4f8a9f090042fe028f8e1
:1058b000a3e039f92274f712242374091223fae0c1
:1058c000fe740a1223fae0ff740b1223fae0f521aa
:1058d000ec7001ed6016ea7001eb6010ea2cfaeb57
:1058e0003dc313fbea139003e4126c15e9600490c6
:1058f00003e3f0ee9003e8f0e5219003e16005e0ba
:10590000d2e08003e0c2e0f0906014e054fcf0efdd
:105910006004e04403f0026d3a74f6122423e99027
:1059200003e16005e0d2e18003e0c2e1f075210609
:105930007522007821122647eafcebfd7ae97b0309
:105940001263b61223a77900027d2c74f612242369
:1059500074fe1223c112263374ff122391e9fe90c4
:1059600003e27076e070057900027d19a2afe4923f
:10597000e0ff125a937002e585602b0592a3a3a362
:10598000a3a3a3e064fd701e797712191590618ab4
:10599000e06009e5e170fc75e1068007e5e170fc77
:1059a00075e1227401f0e45392fe9003e2f0efa25d
:1059b000e092af9003e0125bc964fd60f69003e6ed
:1059c000125a987002e585609e0592a3a3a3a3a333
:1059d000a3e0126f8d125a87808de06004793a80bf
:1059e000889003e8e06403604f900461e0a2e05017
:1059f00005790c02596912175f8a218b22a821a907
:105a0000229003e6127a10e87001e9700579090224
:105a10005969900461e04401f0a3e0f0900465e06e
:105a200054fef8a3e0f99003e1e0a2e0e492e0483c
:105a3000900465f0a3e980069003e6e4f0a3f0e5a6
:105a400094a2e24009759403e594a2e250fa790029
:105a50001218f79003dc126c1474016e9003de7060
:105a600007e4f0a374088005740af0a3e4f074015d
:105a70009003e2f074fd9003e0f07ada7b031234d5
:105a8000a6121729025967f0900461e054fef0a3b2
:105a9000e0f022c2af900431e0f584a3e0f585e5a3
:105aa000842274f612242374fe1223c11226337446
:105ab000ff122391e9feeaffee707fa2afe492e0cd
:105ac000f522125a937002e58560320592a3a3a3d2
:105ad000a3a3a3e0fa74fe6a600574fc6a701e79e1
